:100000000C9434000C94B1000C9446000C944600FF
:100010000C9446000C9446000C9446000C94460048
:100020000C9446000C9446000C9446000C946E0010
:100030000C9446000C9446000C9446000C94460028
:100040000C9446000C9446000C9446000C94460018
:100050000C9446000C9446000C9446000C94460008
:100060000C9446000C94460011241FBECFEFD8E03C
:10007000DEBFCDBF21E0A0E0B1E001C01D92A830FD
:10008000B207E1F70E942B010C9430010C940000A0
:10009000E1E8F0E0808188608083808183608083F4
:1000A00089EF90E09093890080938800EFE6F0E07C
:1000B00080818260808308958AB188638AB952986A
:1000C0005A9AE9E6F0E080818260808380818E7FA9
:1000D0008083E89A0E944800789408951F921FB682
:1000E0001F9211242F938F939F93AF93BF9380916F
:1000F000030190910401A0910501B09106010196C0
:10010000A11DB11D8093030190930401A0930501EB
:10011000B09306018091030190910401A091050123
:10012000B091060180319742A105B10588F081E0C8
:1001300080930201109203011092040110920501B4
:100140001092060181E090E09093010180930001FC
:10015000BF91AF919F918F912F911F901FBE1F90C4
:1001600018951F921FB61F9211248F9381E08093E0
:1001700007011092030110920401109205011092E0
:1001800006018F911F901FBE1F901895809100014E
:1001900090910101019771F583E090E02BB1277CEC
:1001A0002BB92FEF34E34CE0215030404040E1F7D1
:1001B00000C000002BB128632BB92FEF34E34CE0D3
:1001C000215030404040E1F700C00000019731F776
:1001D0008BB1877C8BB982E090E090930101809392
:1001E00000018FEF99E628E1815090402040E1F72F
:1001F00000C000005B9A3FEF43ED80E33150404088
:100200008040E1F700C000005C9A9FEF23ED30E3EF
:10021000915020403040E1F700C000005D9A4FEF60
:1002200089E698E1415080409040E1F700C000002D
:1002300080910701882329F08BB1877C8BB91092BC
:1002400007012FEF33ED40E3215030404040E1F70C
:1002500000C0000008950E945C000E94C600FDCF0F
:04026000F894FFCF40
:00000001FF
