:100000000C9434000C947E000C9446000C94460032
:100010000C9446000C9446000C9446000C94460048
:100020000C9446000C9446000C9446000C94460038
:100030000C9446000C9446000C9446000C94460028
:100040000C9446000C9446000C9446000C94460018
:100050000C9446000C9446000C9446000C94460008
:100060000C9446000C94460011241FBECFEFD8E03C
:10007000DEBFCDBF21E0A0E0B1E001C01D92A13004
:10008000B207E1F70E94AC000C94B1000C940000A0
:10009000549A2098289A559A5D98E9E6F0E0808174
:1000A0008260808380818E7F8083E89A789408952F
:1000B00080910001833021F48BB190E189278BB9C5
:1000C00080910001843011F410920001089590E0B5
:1000D000880F991F30E020E050E28217930711F457
:1000E0005D9808954BB145274BB9EFECF7E0319798
:1000F000F1F700C000002F5F3F4FEFCF1F920F922C
:100100000FB60F9211242F933F934F935F936F93EA
:100110007F938F939F93AF93BF93EF93FF938091C0
:1001200000018F5F8093000180910001833019F4FA
:1001300084E60E946700FF91EF91BF91AF919F917C
:100140008F917F916F915F914F913F912F910F9080
:100150000FBE0F901F9018950E9448000E945800F3
:06016000FDCFF894FFCF73
:00000001FF
