:100000000C9434000C943E000C943E000C943E0082
:100010000C943E000C943E000C943E000C943E0068
:100020000C943E000C943E000C943E000C943E0058
:100030000C943E000C943E000C943E000C943E0048
:100040000C943E000C943E000C943E000C943E0038
:100050000C943E000C943E000C943E000C943E0028
:100060000C943E000C943E0011241FBECFEFD8E04C
:10007000DEBFCDBF0E9466000C946B000C940000A4
:100080008AB18C6F8AB984B1836084B908958BB1C9
:100090008C6F8BB985B1836085B92FEF83ED90E3C9
:1000A000215080409040E1F700C000008BB1837088
:1000B0008BB985B18C7F85B92FEF83ED90E321500B
:1000C00080409040E1F700C0000008950E94400089
:0A00D0000E944700FDCFF894FFCF17
:00000001FF
